{
  "_format": "hh-sol-artifact-1",
  "contractName": "CarbonCredit",
  "sourceName": "contracts/CarbonCredit.sol",
  "abi": [
    {
      "anonymous": false,
      "inputs": [
        {
          "indexed": false,
          "internalType": "address",
          "name": "to",
          "type": "address"
        },
        {
          "indexed": false,
          "internalType": "uint256",
          "name": "amount",
          "type": "uint256"
        }
      ],
      "name": "CreditIssued",
      "type": "event"
    },
    {
      "anonymous": false,
      "inputs": [
        {
          "indexed": false,
          "internalType": "address",
          "name": "from",
          "type": "address"
        },
        {
          "indexed": false,
          "internalType": "uint256",
          "name": "amount",
          "type": "uint256"
        }
      ],
      "name": "CreditRetired",
      "type": "event"
    },
    {
      "inputs": [
        {
          "internalType": "address",
          "name": "",
          "type": "address"
        }
      ],
      "name": "credits",
      "outputs": [
        {
          "internalType": "uint256",
          "name": "",
          "type": "uint256"
        }
      ],
      "stateMutability": "view",
      "type": "function"
    },
    {
      "inputs": [
        {
          "internalType": "address",
          "name": "_to",
          "type": "address"
        },
        {
          "internalType": "uint256",
          "name": "_amount",
          "type": "uint256"
        }
      ],
      "name": "issueCredit",
      "outputs": [],
      "stateMutability": "nonpayable",
      "type": "function"
    },
    {
      "inputs": [
        {
          "internalType": "uint256",
          "name": "_amount",
          "type": "uint256"
        }
      ],
      "name": "retireCredit",
      "outputs": [],
      "stateMutability": "nonpayable",
      "type": "function"
    }
  ],
  "bytecode": "0x6080604052348015600f57600080fd5b506102c48061001f6000396000f3fe608060405234801561001057600080fd5b50600436106100415760003560e01c80637719acc614610046578063eb899eeb1461005b578063fe5ff4681461006e575b600080fd5b6100596100543660046101e7565b6100a0565b005b610059610069366004610211565b610113565b61008e61007c36600461022a565b60006020819052908152604090205481565b60405190815260200160405180910390f35b6001600160a01b038216600090815260208190526040812080548392906100c8908490610262565b9091555050604080516001600160a01b0384168152602081018390527f9cd50c4ae1f9e1e6fe910dd37ba6a6b9fcc5f9d9caba92513fe2f4aed5aff5a6910160405180910390a15050565b3360009081526020819052604090205481111561016b5760405162461bcd60e51b81526020600482015260126024820152714e6f7420656e6f756768206372656469747360701b604482015260640160405180910390fd5b336000908152602081905260408120805483929061018a90849061027b565b909155505060408051338152602081018390527f3cb08e31ece6c14fe1eb4e3c83f5ff87045c95d67eb311455151599454c3e6fa910160405180910390a150565b80356001600160a01b03811681146101e257600080fd5b919050565b600080604083850312156101fa57600080fd5b610203836101cb565b946020939093013593505050565b60006020828403121561022357600080fd5b5035919050565b60006020828403121561023c57600080fd5b610245826101cb565b9392505050565b634e487b7160e01b600052601160045260246000fd5b808201808211156102755761027561024c565b92915050565b818103818111156102755761027561024c56fea26469706673582212204f94dae8fdb28402679022f09978398db3e835b51624eeec053944b53114ca7964736f6c634300081c0033",
  "linkReferences": {},
  "deployedLinkReferences": {}
}