{
  "_format": "hh-sol-artifact-1",
  "contractName": "ProductRegistry",
  "sourceName": "contracts/ProductRegistry.sol",
  "abi": [
    {
      "inputs": [],
      "stateMutability": "nonpayable",
      "type": "constructor"
    },
    {
      "anonymous": false,
      "inputs": [
        {
          "indexed": false,
          "internalType": "string",
          "name": "batchId",
          "type": "string"
        },
        {
          "indexed": false,
          "internalType": "bool",
          "name": "isCompliant",
          "type": "bool"
        },
        {
          "indexed": false,
          "internalType": "uint8",
          "name": "score",
          "type": "uint8"
        }
      ],
      "name": "ComplianceUpdated",
      "type": "event"
    },
    {
      "anonymous": false,
      "inputs": [
        {
          "indexed": false,
          "internalType": "string",
          "name": "batchId",
          "type": "string"
        },
        {
          "indexed": false,
          "internalType": "string",
          "name": "network",
          "type": "string"
        },
        {
          "indexed": false,
          "internalType": "string",
          "name": "proof",
          "type": "string"
        }
      ],
      "name": "CrossChainSync",
      "type": "event"
    },
    {
      "anonymous": false,
      "inputs": [
        {
          "indexed": false,
          "internalType": "string",
          "name": "batchId",
          "type": "string"
        },
        {
          "indexed": false,
          "internalType": "address",
          "name": "producer",
          "type": "address"
        },
        {
          "indexed": false,
          "internalType": "string",
          "name": "certification",
          "type": "string"
        },
        {
          "indexed": false,
          "internalType": "uint8",
          "name": "complianceScore",
          "type": "uint8"
        }
      ],
      "name": "ProductAdded",
      "type": "event"
    },
    {
      "inputs": [
        {
          "internalType": "string",
          "name": "_batchId",
          "type": "string"
        },
        {
          "internalType": "string",
          "name": "_product",
          "type": "string"
        },
        {
          "internalType": "string",
          "name": "_carbonActivity",
          "type": "string"
        },
        {
          "internalType": "string",
          "name": "_certification",
          "type": "string"
        },
        {
          "internalType": "string",
          "name": "_privateData",
          "type": "string"
        }
      ],
      "name": "addProduct",
      "outputs": [],
      "stateMutability": "nonpayable",
      "type": "function"
    },
    {
      "inputs": [
        {
          "internalType": "string",
          "name": "",
          "type": "string"
        }
      ],
      "name": "certificationScores",
      "outputs": [
        {
          "internalType": "uint8",
          "name": "",
          "type": "uint8"
        }
      ],
      "stateMutability": "view",
      "type": "function"
    },
    {
      "inputs": [
        {
          "internalType": "string",
          "name": "",
          "type": "string"
        }
      ],
      "name": "crossChainNetworks",
      "outputs": [
        {
          "internalType": "address",
          "name": "",
          "type": "address"
        }
      ],
      "stateMutability": "view",
      "type": "function"
    },
    {
      "inputs": [],
      "name": "getAllProductBatchIds",
      "outputs": [
        {
          "internalType": "string[]",
          "name": "",
          "type": "string[]"
        }
      ],
      "stateMutability": "view",
      "type": "function"
    },
    {
      "inputs": [
        {
          "internalType": "string",
          "name": "_batchId",
          "type": "string"
        }
      ],
      "name": "getCrossChainProofs",
      "outputs": [
        {
          "internalType": "string[]",
          "name": "",
          "type": "string[]"
        }
      ],
      "stateMutability": "view",
      "type": "function"
    },
    {
      "inputs": [
        {
          "internalType": "string",
          "name": "_batchId",
          "type": "string"
        }
      ],
      "name": "getCrossChainStatus",
      "outputs": [
        {
          "internalType": "string[]",
          "name": "networks",
          "type": "string[]"
        },
        {
          "internalType": "bool[]",
          "name": "verified",
          "type": "bool[]"
        }
      ],
      "stateMutability": "view",
      "type": "function"
    },
    {
      "inputs": [
        {
          "internalType": "string",
          "name": "_batchId",
          "type": "string"
        }
      ],
      "name": "getProduct",
      "outputs": [
        {
          "internalType": "string",
          "name": "product",
          "type": "string"
        },
        {
          "internalType": "string",
          "name": "carbonActivity",
          "type": "string"
        },
        {
          "internalType": "string",
          "name": "certification",
          "type": "string"
        },
        {
          "internalType": "uint256",
          "name": "timestamp",
          "type": "uint256"
        },
        {
          "internalType": "address",
          "name": "producer",
          "type": "address"
        }
      ],
      "stateMutability": "view",
      "type": "function"
    },
    {
      "inputs": [
        {
          "internalType": "uint256",
          "name": "index",
          "type": "uint256"
        }
      ],
      "name": "getProductBatchIdByIndex",
      "outputs": [
        {
          "internalType": "string",
          "name": "",
          "type": "string"
        }
      ],
      "stateMutability": "view",
      "type": "function"
    },
    {
      "inputs": [],
      "name": "getProductCount",
      "outputs": [
        {
          "internalType": "uint256",
          "name": "",
          "type": "uint256"
        }
      ],
      "stateMutability": "view",
      "type": "function"
    },
    {
      "inputs": [
        {
          "internalType": "string",
          "name": "_batchId",
          "type": "string"
        }
      ],
      "name": "getProductWithCompliance",
      "outputs": [
        {
          "internalType": "string",
          "name": "product",
          "type": "string"
        },
        {
          "internalType": "string",
          "name": "carbonActivity",
          "type": "string"
        },
        {
          "internalType": "string",
          "name": "certification",
          "type": "string"
        },
        {
          "internalType": "uint256",
          "name": "timestamp",
          "type": "uint256"
        },
        {
          "internalType": "address",
          "name": "producer",
          "type": "address"
        },
        {
          "internalType": "bool",
          "name": "isCompliant",
          "type": "bool"
        },
        {
          "internalType": "uint8",
          "name": "complianceScore",
          "type": "uint8"
        }
      ],
      "stateMutability": "view",
      "type": "function"
    },
    {
      "inputs": [],
      "name": "getSupportedNetworks",
      "outputs": [
        {
          "internalType": "string[]",
          "name": "",
          "type": "string[]"
        }
      ],
      "stateMutability": "view",
      "type": "function"
    },
    {
      "inputs": [
        {
          "internalType": "uint256",
          "name": "",
          "type": "uint256"
        }
      ],
      "name": "productBatchIds",
      "outputs": [
        {
          "internalType": "string",
          "name": "",
          "type": "string"
        }
      ],
      "stateMutability": "view",
      "type": "function"
    },
    {
      "inputs": [
        {
          "internalType": "string",
          "name": "",
          "type": "string"
        }
      ],
      "name": "products",
      "outputs": [
        {
          "internalType": "string",
          "name": "batchId",
          "type": "string"
        },
        {
          "internalType": "string",
          "name": "product",
          "type": "string"
        },
        {
          "internalType": "string",
          "name": "carbonActivity",
          "type": "string"
        },
        {
          "internalType": "string",
          "name": "certification",
          "type": "string"
        },
        {
          "internalType": "uint256",
          "name": "timestamp",
          "type": "uint256"
        },
        {
          "internalType": "address",
          "name": "producer",
          "type": "address"
        },
        {
          "internalType": "string",
          "name": "privateData",
          "type": "string"
        },
        {
          "internalType": "bool",
          "name": "isCompliant",
          "type": "bool"
        },
        {
          "internalType": "uint8",
          "name": "complianceScore",
          "type": "uint8"
        }
      ],
      "stateMutability": "view",
      "type": "function"
    },
    {
      "inputs": [
        {
          "internalType": "uint256",
          "name": "",
          "type": "uint256"
        }
      ],
      "name": "supportedNetworks",
      "outputs": [
        {
          "internalType": "string",
          "name": "",
          "type": "string"
        }
      ],
      "stateMutability": "view",
      "type": "function"
    },
    {
      "inputs": [
        {
          "internalType": "string",
          "name": "_batchId",
          "type": "string"
        },
        {
          "internalType": "string",
          "name": "_network",
          "type": "string"
        }
      ],
      "name": "syncToOtherChain",
      "outputs": [
        {
          "internalType": "string",
          "name": "proof",
          "type": "string"
        }
      ],
      "stateMutability": "nonpayable",
      "type": "function"
    },
    {
      "inputs": [
        {
          "internalType": "string",
          "name": "_batchId",
          "type": "string"
        },
        {
          "internalType": "uint8",
          "name": "_newScore",
          "type": "uint8"
        }
      ],
      "name": "updateComplianceScore",
      "outputs": [],
      "stateMutability": "nonpayable",
      "type": "function"
    },
    {
      "inputs": [
        {
          "internalType": "string",
          "name": "",
          "type": "string"
        }
      ],
      "name": "validCertifications",
      "outputs": [
        {
          "internalType": "bool",
          "name": "",
          "type": "bool"
        }
      ],
      "stateMutability": "view",
      "type": "function"
    },
    {
      "inputs": [
        {
          "internalType": "string",
          "name": "_batchId",
          "type": "string"
        }
      ],
      "name": "viewPrivateData",
      "outputs": [
        {
          "internalType": "string",
          "name": "",
          "type": "string"
        }
      ],
      "stateMutability": "view",
      "type": "function"
    }
  ],
  "bytecode": "0x608060405234801561001057600080fd5b5073742d35cc6634c0532925a3b8d4c9db96c4b4d8b660006040516100439067657468657265756d60c01b815260080190565b90815260408051918290036020908101832080546001600160a01b03959095166001600160a01b0319958616179055663837b63cb3b7b760c91b80845260006007808601829052845195869003602701862080547312345678901234567890123456789012345678909089161790556262736360e81b8087526003808801939093528551968790036023018720805473098765432109876543210987654321098765432199169890981790975560a08601855260086060870190815267657468657265756d60c01b6080880152865284518086018652908152808401929092528483019190915282518084018452818152918201949094529082015261014c91600191906102ab565b506001600260405161016b90666f7267616e696360c81b815260070190565b90815260408051918290036020018220805493151560ff1994851617905569666169722d747261646560b01b8083526002600a808501829052835194859003602a90810186208054881660019081179091556d18d85c989bdb8b5b995d5d1c985b60921b808852600e808901869052875198899003602e9081018a2080548c16851790556a7375737461696e61626c6560a81b808b52600b808c019890985289519a8b9003602b9081018c2080548e16909617909555666f7267616e696360c81b8b52600360078c018190528a519b8c90036027018c2080546055908f16179055988b52958a018890528851998a9003909401892080546050908c16179055908852870185905285519687900390910186208054605a908916179055908552908401919091529051918290030190208054604b92169190911790556104cd565b8280548282559060005260206000209081019282156102f1579160200282015b828111156102f157825182906102e1908261040f565b50916020019190600101906102cb565b506102fd929150610301565b5090565b808211156102fd576000610315828261031e565b50600101610301565b50805461032a90610386565b6000825580601f1061033a575050565b601f016020900490600052602060002090810190610358919061035b565b50565b5b808211156102fd576000815560010161035c565b634e487b7160e01b600052604160045260246000fd5b600181811c9082168061039a57607f821691505b6020821081036103ba57634e487b7160e01b600052602260045260246000fd5b50919050565b601f82111561040a57806000526020600020601f840160051c810160208510156103e75750805b601f840160051c820191505b8181101561040757600081556001016103f3565b50505b505050565b81516001600160401b0381111561042857610428610370565b61043c816104368454610386565b846103c0565b6020601f82116001811461047057600083156104585750848201515b600019600385901b1c1916600184901b178455610407565b600084815260208120601f198516915b828110156104a05787850151825560209485019460019092019101610480565b50848210156104be5786840151600019600387901b60f8161c191681555b50505050600190811b01905550565b6123e3806104dc6000396000f3fe608060405234801561001057600080fd5b50600436106101165760003560e01c806368111cce116100a2578063d235725211610071578063d2357252146102c8578063d79ca61b146102dd578063ef6da8d41461031d578063f050beb514610330578063fbbefea31461034357600080fd5b806368111cce1461023d5780636b2452f21461026157806399f3c9d8146102ad5780639b33f413146102b557600080fd5b8063387b55f2116100e9578063387b55f2146101945780633f1f2978146101b55780634a348da9146101f35780634acce5c914610204578063642f7bf21461021757600080fd5b80630186a4231461011b5780631e44c1e51461014c57806325ce69b51461016c5780633354c7f61461018c575b600080fd5b61012e610129366004611b31565b610356565b60405161014399989796959493929190611bb5565b60405180910390f35b61015f61015a366004611c50565b610663565b6040516101439190611cb7565b61017f61017a366004611b31565b610869565b6040516101439190611d2d565b61017f6109ae565b6101a76101a2366004611b31565b610a87565b604051610143929190611d40565b6101e36101c3366004611b31565b805160208183018101805160028252928201919093012091525460ff1681565b6040519015158152602001610143565b600554604051908152602001610143565b61015f610212366004611d90565b610ccf565b61022a610225366004611b31565b610dc6565b6040516101439796959493929190611da9565b61025061024b366004611b31565b61101d565b604051610143959493929190611e15565b61029561026f366004611b31565b80516020818301810180516000825292820191909301209152546001600160a01b031681565b6040516001600160a01b039091168152602001610143565b61017f611258565b61015f6102c3366004611d90565b611328565b6102db6102d6366004611e71565b6113d4565b005b61030b6102eb366004611b31565b805160208183018101805160038252928201919093012091525460ff1681565b60405160ff9091168152602001610143565b6102db61032b366004611ec8565b611542565b61015f61033e366004611d90565b61174c565b61015f610351366004611b31565b61175c565b805160208183018101805160048252928201919093012091528054819061037c90611faf565b80601f01602080910402602001604051908101604052809291908181526020018280546103a890611faf565b80156103f55780601f106103ca576101008083540402835291602001916103f5565b820191906000526020600020905b8154815290600101906020018083116103d857829003601f168201915b50505050509080600101805461040a90611faf565b80601f016020809104026020016040519081016040528092919081815260200182805461043690611faf565b80156104835780601f1061045857610100808354040283529160200191610483565b820191906000526020600020905b81548152906001019060200180831161046657829003601f168201915b50505050509080600201805461049890611faf565b80601f01602080910402602001604051908101604052809291908181526020018280546104c490611faf565b80156105115780601f106104e657610100808354040283529160200191610511565b820191906000526020600020905b8154815290600101906020018083116104f457829003601f168201915b50505050509080600301805461052690611faf565b80601f016020809104026020016040519081016040528092919081815260200182805461055290611faf565b801561059f5780601f106105745761010080835404028352916020019161059f565b820191906000526020600020905b81548152906001019060200180831161058257829003601f168201915b5050505060048301546005840154600685018054949592946001600160a01b039092169350906105ce90611faf565b80601f01602080910402602001604051908101604052809291908181526020018280546105fa90611faf565b80156106475780601f1061061c57610100808354040283529160200191610647565b820191906000526020600020905b81548152906001019060200180831161062a57829003601f168201915b5050506007909301549192505060ff8082169161010090041689565b606060006004846040516106779190611fe9565b908152604051908190036020019020805461069190611faf565b9050116106b95760405162461bcd60e51b81526004016106b090612005565b60405180910390fd5b60006001600160a01b03166000836040516106d49190611fe9565b908152604051908190036020019020546001600160a01b0316036107325760405162461bcd60e51b815260206004820152601560248201527413995d1ddbdc9ac81b9bdd081cdd5c1c1bdc9d1959605a1b60448201526064016106b0565b600061073d4261178a565b90508383826107736000876040516107559190611fe9565b908152604051908190036020019020546001600160a01b031661178a565b6040516020016107869493929190612030565b60405160208183030381529060405291506004846040516107a79190611fe9565b9081526040516020918190038201902060080180546001810182556000918252919020016107d58382612117565b5060016004856040516107e89190611fe9565b9081526020016040518091039020600901846040516108079190611fe9565b908152604051908190036020018120805492151560ff19909316929092179091557f13802cfae6e2aac3eaccdde63189358a709fbb0c6de2bf8c320ae6a5b879995690610859908690869086906121d5565b60405180910390a1505b92915050565b6060600060048360405161087d9190611fe9565b908152604051908190036020019020805461089790611faf565b9050116108b65760405162461bcd60e51b81526004016106b090612005565b6004826040516108c69190611fe9565b9081526020016040518091039020600801805480602002602001604051908101604052809291908181526020016000905b828210156109a357838290600052602060002001805461091690611faf565b80601f016020809104026020016040519081016040528092919081815260200182805461094290611faf565b801561098f5780601f106109645761010080835404028352916020019161098f565b820191906000526020600020905b81548152906001019060200180831161097257829003601f168201915b5050505050815260200190600101906108f7565b505050509050919050565b60606001805480602002602001604051908101604052809291908181526020016000905b82821015610a7e5783829060005260206000200180546109f190611faf565b80601f0160208091040260200160405190810160405280929190818152602001828054610a1d90611faf565b8015610a6a5780601f10610a3f57610100808354040283529160200191610a6a565b820191906000526020600020905b815481529060010190602001808311610a4d57829003601f168201915b5050505050815260200190600101906109d2565b50505050905090565b6060806000600484604051610a9c9190611fe9565b9081526040519081900360200190208054610ab690611faf565b905011610ad55760405162461bcd60e51b81526004016106b090612005565b6001546001600160401b03811115610aef57610aef611a8e565b604051908082528060200260200182016040528015610b2257816020015b6060815260200190600190039081610b0d5790505b506001549092506001600160401b03811115610b4057610b40611a8e565b604051908082528060200260200182016040528015610b69578160200160208202803683370190505b50905060005b600154811015610cc95760018181548110610b8c57610b8c612218565b906000526020600020018054610ba190611faf565b80601f0160208091040260200160405190810160405280929190818152602001828054610bcd90611faf565b8015610c1a5780601f10610bef57610100808354040283529160200191610c1a565b820191906000526020600020905b815481529060010190602001808311610bfd57829003601f168201915b5050505050838281518110610c3157610c31612218565b6020026020010181905250600484604051610c4c9190611fe9565b908152602001604051809103902060090160018281548110610c7057610c70612218565b90600052602060002001604051610c87919061222e565b90815260405190819003602001902054825160ff90911690839083908110610cb157610cb1612218565b91151560209283029190910190910152600101610b6f565b50915091565b6005546060908210610d195760405162461bcd60e51b8152602060048201526013602482015272496e646578206f7574206f6620626f756e647360681b60448201526064016106b0565b60058281548110610d2c57610d2c612218565b906000526020600020018054610d4190611faf565b80601f0160208091040260200160405190810160405280929190818152602001828054610d6d90611faf565b8015610dba5780601f10610d8f57610100808354040283529160200191610dba565b820191906000526020600020905b815481529060010190602001808311610d9d57829003601f168201915b50505050509050919050565b60608060606000806000806000600489604051610de39190611fe9565b908152602001604051809103902090506000816000018054610e0490611faf565b905011610e235760405162461bcd60e51b81526004016106b090612005565b60048101546005820154600783015460018401805490936002860193600387019391926001600160a01b039091169160ff8082169261010090920416908790610e6b90611faf565b80601f0160208091040260200160405190810160405280929190818152602001828054610e9790611faf565b8015610ee45780601f10610eb957610100808354040283529160200191610ee4565b820191906000526020600020905b815481529060010190602001808311610ec757829003601f168201915b50505050509650858054610ef790611faf565b80601f0160208091040260200160405190810160405280929190818152602001828054610f2390611faf565b8015610f705780601f10610f4557610100808354040283529160200191610f70565b820191906000526020600020905b815481529060010190602001808311610f5357829003601f168201915b50505050509550848054610f8390611faf565b80601f0160208091040260200160405190810160405280929190818152602001828054610faf90611faf565b8015610ffc5780601f10610fd157610100808354040283529160200191610ffc565b820191906000526020600020905b815481529060010190602001808311610fdf57829003601f168201915b50505050509450975097509750975097509750975050919395979092949650565b606080606060008060006004876040516110379190611fe9565b90815260200160405180910390209050600081600001805461105890611faf565b9050116110775760405162461bcd60e51b81526004016106b090612005565b80600101816002018260030183600401548460050160009054906101000a90046001600160a01b03168480546110ac90611faf565b80601f01602080910402602001604051908101604052809291908181526020018280546110d890611faf565b80156111255780601f106110fa57610100808354040283529160200191611125565b820191906000526020600020905b81548152906001019060200180831161110857829003601f168201915b5050505050945083805461113890611faf565b80601f016020809104026020016040519081016040528092919081815260200182805461116490611faf565b80156111b15780601f10611186576101008083540402835291602001916111b1565b820191906000526020600020905b81548152906001019060200180831161119457829003601f168201915b505050505093508280546111c490611faf565b80601f01602080910402602001604051908101604052809291908181526020018280546111f090611faf565b801561123d5780601f106112125761010080835404028352916020019161123d565b820191906000526020600020905b81548152906001019060200180831161122057829003601f168201915b50505050509250955095509550955095505091939590929450565b60606005805480602002602001604051908101604052809291908181526020016000905b82821015610a7e57838290600052602060002001805461129b90611faf565b80601f01602080910402602001604051908101604052809291908181526020018280546112c790611faf565b80156113145780601f106112e957610100808354040283529160200191611314565b820191906000526020600020905b8154815290600101906020018083116112f757829003601f168201915b50505050508152602001906001019061127c565b6005818154811061133857600080fd5b90600052602060002001600091509050805461135390611faf565b80601f016020809104026020016040519081016040528092919081815260200182805461137f90611faf565b80156113cc5780601f106113a1576101008083540402835291602001916113cc565b820191906000526020600020905b8154815290600101906020018083116113af57829003601f168201915b505050505081565b60006004836040516113e69190611fe9565b908152604051908190036020019020805461140090611faf565b90501161141f5760405162461bcd60e51b81526004016106b090612005565b60648160ff1611156114695760405162461bcd60e51b8152602060048201526013602482015272053636f7265206d75737420626520302d31303606c1b60448201526064016106b0565b8060048360405161147a9190611fe9565b908152602001604051809103902060070160016101000a81548160ff021916908360ff16021790555060468160ff1610156004836040516114bb9190611fe9565b908152604051908190036020018120600701805492151560ff19909316929092179091557f5f341de14094782e626717afe682c9c186565d5374f7eea6effc3fb99d6e51c7908390600490611511908390611fe9565b90815260405190819003602001812060070154611536929160ff9091169085906122a3565b60405180910390a15050565b6004856040516115529190611fe9565b908152604051908190036020019020805461156c90611faf565b1590506115cd5760405162461bcd60e51b815260206004820152602960248201527f50726f647563742077697468207468697320626174636820494420616c72656160448201526864792065786973747360b81b60648201526084016106b0565b60006004866040516115df9190611fe9565b9081526040519081900360200190209050806115fb8782612117565b506001810161160a8682612117565b50600281016116198582612117565b50600381016116288482612117565b504260048201556005810180546001600160a01b03191633179055600681016116518382612117565b50600061165e84866118b5565b600783018054604660ff84169081101561ffff1990921661010090910260ff191617179055600580546001810182556000919091529091507f036b6384b5eca791c62761152d0c79bb0604c104a5fb6f4eb0703f3154bb3db0016116c28882612117565b507f4a33d272d41d7aa2388adc46c46a7677da1677a85a3111251d488267d64d0a2c873386846040516116f894939291906122d0565b60405180910390a160078201546040517f5f341de14094782e626717afe682c9c186565d5374f7eea6effc3fb99d6e51c79161173b918a9160ff169085906122a3565b60405180910390a150505050505050565b6001818154811061133857600080fd5b606060048260405161176e9190611fe9565b90815260200160405180910390206006018054610d4190611faf565b6060816000036117b15750506040805180820190915260018152600360fc1b602082015290565b8160005b81156117db57806117c58161232f565b91506117d49050600a83612348565b91506117b5565b6000816001600160401b038111156117f5576117f5611a8e565b6040519080825280601f01601f19166020018201604052801561181f576020820181803683370190505b509050815b85156118ac5761183560018261236a565b90506000611844600a88612348565b61184f90600a61237d565b611859908861236a565b611864906030612394565b905060008160f81b90508084848151811061188157611881612218565b60200101906001600160f81b031916908160001a9053506118a3600a89612348565b97505050611824565b50949350505050565b600080600090506002846040516118cc9190611fe9565b9081526040519081900360200190205460ff1615611918576003846040516118f49190611fe9565b908152604051908190036020019020546119119060ff1682612394565b9050611926565b611923603282612394565b90505b825115611a7257604051693637bb96b1b0b93137b760b11b6020820152602a01604051602081830303815290604052805190602001208360405160200161196d9190611fe9565b604051602081830303815290604052805190602001200361199a57611993600a82612394565b9050611a72565b6040516d18d85c989bdb8b5b995d5d1c985b60921b6020820152602e0160405160208183030381529060405280519060200120836040516020016119de9190611fe9565b6040516020818303038152906040528051906020012003611a0457611993600f82612394565b6040516e636172626f6e2d6e6567617469766560881b6020820152602f016040516020818303038152906040528051906020012083604051602001611a499190611fe9565b6040516020818303038152906040528051906020012003611a7257611a6f601482612394565b90505b60648160ff1611611a835780611a86565b60645b949350505050565b634e487b7160e01b600052604160045260246000fd5b600082601f830112611ab557600080fd5b81356001600160401b03811115611ace57611ace611a8e565b604051601f8201601f19908116603f011681016001600160401b0381118282101715611afc57611afc611a8e565b604052818152838201602001851015611b1457600080fd5b816020850160208301376000918101602001919091529392505050565b600060208284031215611b4357600080fd5b81356001600160401b03811115611b5957600080fd5b611a8684828501611aa4565b60005b83811015611b80578181015183820152602001611b68565b50506000910152565b60008151808452611ba1816020860160208601611b65565b601f01601f19169290920160200192915050565b61012081526000611bca61012083018c611b89565b8281036020840152611bdc818c611b89565b90508281036040840152611bf0818b611b89565b90508281036060840152611c04818a611b89565b608084018990526001600160a01b03881660a085015283810360c08501529050611c2e8187611b89565b94151560e0840152505060ff9190911661010090910152979650505050505050565b60008060408385031215611c6357600080fd5b82356001600160401b03811115611c7957600080fd5b611c8585828601611aa4565b92505060208301356001600160401b03811115611ca157600080fd5b611cad85828601611aa4565b9150509250929050565b602081526000611cca6020830184611b89565b9392505050565b600082825180855260208501945060208160051b8301016020850160005b83811015611d2157601f19858403018852611d0b838351611b89565b6020988901989093509190910190600101611cef565b50909695505050505050565b602081526000611cca6020830184611cd1565b604081526000611d536040830185611cd1565b828103602084015280845180835260208301915060208601925060005b81811015611d215783511515835260209384019390920191600101611d70565b600060208284031215611da257600080fd5b5035919050565b60e081526000611dbc60e083018a611b89565b8281036020840152611dce818a611b89565b90508281036040840152611de28189611b89565b606084019790975250506001600160a01b0393909316608084015290151560a083015260ff1660c0909101529392505050565b60a081526000611e2860a0830188611b89565b8281036020840152611e3a8188611b89565b90508281036040840152611e4e8187611b89565b606084019590955250506001600160a01b03919091166080909101529392505050565b60008060408385031215611e8457600080fd5b82356001600160401b03811115611e9a57600080fd5b611ea685828601611aa4565b925050602083013560ff81168114611ebd57600080fd5b809150509250929050565b600080600080600060a08688031215611ee057600080fd5b85356001600160401b03811115611ef657600080fd5b611f0288828901611aa4565b95505060208601356001600160401b03811115611f1e57600080fd5b611f2a88828901611aa4565b94505060408601356001600160401b03811115611f4657600080fd5b611f5288828901611aa4565b93505060608601356001600160401b03811115611f6e57600080fd5b611f7a88828901611aa4565b92505060808601356001600160401b03811115611f9657600080fd5b611fa288828901611aa4565b9150509295509295909350565b600181811c90821680611fc357607f821691505b602082108103611fe357634e487b7160e01b600052602260045260246000fd5b50919050565b60008251611ffb818460208701611b65565b9190910192915050565b602080825260119082015270141c9bd91d58dd081b9bdd08199bdd5b99607a1b604082015260600190565b61060f60f31b81526000855161204d816002850160208a01611b65565b605f60f81b600291840191820152855161206e816003840160208a01611b65565b600281830101915050605f60f81b60018201528451612094816002840160208901611b65565b600181830101915050605f60f81b600182015283516120ba816002840160208801611b65565b016002019695505050505050565b601f82111561211257806000526020600020601f840160051c810160208510156120ef5750805b601f840160051c820191505b8181101561210f57600081556001016120fb565b50505b505050565b81516001600160401b0381111561213057612130611a8e565b6121448161213e8454611faf565b846120c8565b6020601f82116001811461217857600083156121605750848201515b600019600385901b1c1916600184901b17845561210f565b600084815260208120601f198516915b828110156121a85787850151825560209485019460019092019101612188565b50848210156121c65786840151600019600387901b60f8161c191681555b50505050600190811b01905550565b6060815260006121e86060830186611b89565b82810360208401526121fa8186611b89565b9050828103604084015261220e8185611b89565b9695505050505050565b634e487b7160e01b600052603260045260246000fd5b600080835461223c81611faf565b600182168015612253576001811461226857612298565b60ff1983168652811515820286019350612298565b86600052602060002060005b8381101561229057815488820152600190910190602001612274565b505081860193505b509195945050505050565b6060815260006122b66060830186611b89565b93151560208301525060ff91909116604090910152919050565b6080815260006122e36080830187611b89565b6001600160a01b038616602084015282810360408401526123048186611b89565b91505060ff8316606083015295945050505050565b634e487b7160e01b600052601160045260246000fd5b60006001820161234157612341612319565b5060010190565b60008261236557634e487b7160e01b600052601260045260246000fd5b500490565b8181038181111561086357610863612319565b808202811582820484141761086357610863612319565b60ff81811683821601908111156108635761086361231956fea26469706673582212203a6e9262a2bdbe7b8fa9457fc207dccb6f62d64606f67d094d1e82beafe0b85864736f6c634300081c0033",
  "linkReferences": {},
  "deployedLinkReferences": {}
}